{
  "agg_pk": {
    "xi": "0x20b66571554ec582bb08b7f5903bbc7046689851e3960ef37373cf7275a3748d",
    "xr": "0x2cf8c9b3e2582f6fe01a85a48475e3f8d805805c5eb287e150ff0cd2bba7d609",
    "yi": "0x2643275388c9831def41847cefd7720849f9c7e920b85f47a76add3437676bca",
    "yr": "0x2360ffdcb056f42bd5b4c99507adc2e76ea6edb3c595e47cc97b914b31e1f61c"
  },
  "header": {
    "parentHash": "0x246d4821f313fb44423ea205d8281c32c52f17815a2503229d87666a937bfde2",
    "coinbase": "0x7607c9cdd733d8cda0a644839ec2bac5fa180ed4",
    "root": "0x1ab6a099dc3e7a4a713bb06fd23f3575371dba88d3f6524d0ee406af11521eb2",
    "txHash": "0x26cb19081c41a59984c1d76b9a0aeb2fa14b4cafccfb1bb8f06b59880ee44bb9",
    "receiptHash": "0x472aee44b64a0405e623710346d59cd29354f2d3dd0b191d2cd03eccb3852f72",
    "bloom": "0x00020000000020020000000000000004080000000400000000000000001000000000800000000000002200000400000000800004000040000000200000200000000021000202040000000008000000a00000000000002000000000000008010000000002020000400000000008001800000000000000000000000010000000000000002000000000000000000080002800000000000000000000000040000000820000000100000001000000200004000010000000000000010000000001000010000012004000000000000000000020820000000000000000000200000024800010400000000000000020000000000000100000000000110000000000000000",
    "number": "0x46956b",
    "gasLimit": "0xc65d40",
    "gasUsed": "0x4b3f0",
    "time": "0x64203aba",
    "extra": "0xd883010100846765746888676f312e31352e36856c696e757800000000000000f8ddc0c0c080b84147339bfd0786448f56b3f3b5896fcd8daefc8584686f6557d786e0f6abb5689323ebb01b8c638334d05e6d784602e590e3ccc96186b4792f64051ab838fb886b00f849850650bbffafb84027d0f1d30b29b98b0e1bf44edac5af9489c8de1cb91844255bdca13af94e00fe02feb16c7c61fe7e3225a5ee02f167793ffbdf472de190744f5e13310136464080f84985070bf37fcfb84015bd185b1b33c70b1ed1bb1b53d139301f83456579ac6af3fea7a4f99f5ca51a2de2aaacf1250ae239f6a1d66a52797fbc7e2cbfc864a0e46068f91a788aaacb80",
    "mixDigest": "0x0000000000000000000000000000000000000000000000000000000000000000",
    "nonce": "0x0000000000000000",
    "baseFee": "0x174876e800",
    "hash": "0x0b58efc6444d7037acababa2ec3edbc396b4edb98e396329d708e8877a419c0c"
  },
  "key_index": "0x02",
  "proof": [
    "0xf851a0f2066d699854139d05b73c8e4adcb2c7ce23591c71beef04e99992a8382caf2980808080808080a071ca835dc67bb6f021d9a758211c5ac6978f8e235363f216a1a8e2705f39afe48080808080808080",
    "0xf85180a016076a30d65d23d5e2438a17c5331b6d2cec2201adf19b08048b9675a321147ba097dd50c958c884ab2b6714e8399e8bda1fb51b0b73e3308f65aa073b69b7bb0d8080808080808080808080808080",
    "0xf90cf920b90cf502f90cf1018304b3f0b9010000020000000020020000000000000004000000000400000000000000001000000000800000000000002200000400000000800004000040000000200000200000000020000202040000000008000000a00000000000002000000000000000010000000002020000400000000008001800000000000000000000000010000000000000002000000000000000000000002800000000000000000000000040000000020000000100000001000000000004000000000000000000010000000001000010000012004000000000000000000000820000000000000000000200000024800010400000000000000020000000000000100000000000100000000000000000f90be6f89b949f722b2cb30093f766221fd0d37964949ed66918f863a0ddf252ad1be2c89b69c2b068fc378daa952ba7f163c4a11628f55a4df523b3efa0000000000000000000000000766f3377497c66c31a5692a435cf3e72dcc2d4fca000000000000000000000000066bd2fccef911a5bef987dcb4afb5e62f33ca222a000000000000000000000000000000000000000000000000029a2241af62c0000f89b949f722b2cb30093f766221fd0d37964949ed66918f863a08c5be1e5ebec7d5bd14f71427d1e84f3dd0314c0f7b2291e5b200ac8c7c3b925a0000000000000000000000000766f3377497c66c31a5692a435cf3e72dcc2d4fca000000000000000000000000066bd2fccef911a5bef987dcb4afb5e62f33ca222a000000000000000000000000000000000000000000000000041280d16136b9000f89b949f722b2cb30093f766221fd0d37964949ed66918f863a08c5be1e5ebec7d5bd14f71427d1e84f3dd0314c0f7b2291e5b200ac8c7c3b925a000000000000000000000000066bd2fccef911a5bef987dcb4afb5e62f33ca222a0000000000000000000000000630105189c7114667a7179aa57f07647a5f42b7fa000000000000000000000000000000000000000000000000029a2241af62c0000f89b949f722b2cb30093f766221fd0d37964949ed66918f863a0ddf252ad1be2c89b69c2b068fc378daa952ba7f163c4a11628f55a4df523b3efa000000000000000000000000066bd2fccef911a5bef987dcb4afb5e62f33ca222a0000000000000000000000000630105189c7114667a7179aa57f07647a5f42b7fa000000000000000000000000000000000000000000000000029a2241af62c0000f89b949f722b2cb30093f766221fd0d37964949ed66918f863a08c5be1e5ebec7d5bd14f71427d1e84f3dd0314c0f7b2291e5b200ac8c7c3b925a000000000000000000000000066bd2fccef911a5bef987dcb4afb5e62f33ca222a0000000000000000000000000630105189c7114667a7179aa57f07647a5f42b7fa00000000000000000000000000000000000000000000000000000000000000000f89b949f722b2cb30093f766221fd0d37964949ed66918f863a0ddf252ad1be2c89b69c2b068fc378daa952ba7f163c4a11628f55a4df523b3efa0000000000000000000000000630105189c7114667a7179aa57f07647a5f42b7fa0000000000000000000000000fc8d54a80e0facc51d6cb8dd2df61851932f8defa0000000000000000000000000000000000000000000000000011c37937e080000f89b949f722b2cb30093f766221fd0d37964949ed66918f863a0ddf252ad1be2c89b69c2b068fc378daa952ba7f163c4a11628f55a4df523b3efa0000000000000000000000000630105189c7114667a7179aa57f07647a5f42b7fa0000000000000000000000000ce90f44c25b00c022799c96e639dfa547de4ade1a0000000000000000000000000000000000000000000000000002386f26fc10000f89b94630105189c7114667a7179aa57f07647a5f42b7ff863a070813c9dca7020458095d8251d2a1268cfadf7eb8a1fd2054c571fca46fea906a08dd3cdec2cd8e6d1c9795a41d60e3d433607862ad7d67479487cc08be2a62678a00000000000000000000000009f722b2cb30093f766221fd0d37964949ed66918a0000000000000000000000000000000000000000000000000016345785d8a0000f89b949f722b2cb30093f766221fd0d37964949ed66918f863a0ddf252ad1be2c89b69c2b068fc378daa952ba7f163c4a11628f55a4df523b3efa0000000000000000000000000630105189c7114667a7179aa57f07647a5f42b7fa00000000000000000000000000000000000000000000000000000000000000000a0000000000000000000000000000000000000000000000000283edea298a20000f9043d94630105189c7114667a7179aa57f07647a5f42b7ff863a0ca1cf8cebf88499429cca8f87cbca15ab8dafd06702259a5344ddce89ef3f3a5a000000000000000000000000000000000000000000000000000000000000058f8a00000000000000000000000000000000000000000000000000004d50100000001b903c08dd3cdec2cd8e6d1c9795a41d60e3d433607862ad7d67479487cc08be2a6267800000000000000000000000000000000000000000000000000000000000000c00000000000000000000000000000000000000000000000000000000000000120000000000000000000000000000000000000000000000000000000000000016000000000000000000000000000000000000000000000000000000000002c402000000000000000000000000000000000000000000000000000000000000001c0000000000000000000000000000000000000000000000000000000000000003c613062383639393163363231386233366331643139643461326539656230636533363036656234382e666163746f72792e6272696467652e6e656172000000000000000000000000000000000000000000000000000000000000000000000014766f3377497c66c31a5692a435cf3e72dcc2d4fc00000000000000000000000000000000000000000000000000000000000000000000000000000000000000403065376533346136343138643264333431643434623533323030346664326434343466386133323163353963666438306462663731623936663663316432363100000000000000000000000000000000000000000000000000000000000001e0000000000000000000000000000000000000000000000000000000000000006000000000000000000000000000000000000000000000000000000000000001a00000000000000000000000009f722b2cb30093f766221fd0d37964949ed66918000000000000000000000000000000000000000000000000000000000000000100000000000000000000000000000000000000000000000000000000000000200000000000000000000000000000000000000000000000000000000000000000000000000000000000000000000000000000000000012fd6efee90fec4b50880000000000000000000000000000000000000000000000000000000000000008000000000000000000000000000000000000000000000000000000000000000030000000000000000000000000000000000000000000000000000000000000046613062383639393163363231386233366331643139643461326539656230636533363036656234382e666163746f72792e6272696467652e6e65617258777261702e6e65617200000000000000000000000000000000000000000000000000000000000000000000000000000000000000000000000000000000000000000009777261702e6e6561720000000000000000000000000000000000000000000000f9021e9466bd2fccef911a5bef987dcb4afb5e62f33ca222f884a01d67746af427de24be5afc7a7aa07d13dd22ebec2b095ce58b67c8c832c9120fa0000000000000000000000000766f3377497c66c31a5692a435cf3e72dcc2d4fca00000000000000000000000009f722b2cb30093f766221fd0d37964949ed66918a000000000000000000000000000000000000000000000000029a2241af62c0000b9018000000000000000000000000000000000000000000000000000000000000058f80000000000000000000000000000000000000000000000000004d501000000010000000000000000000000009f722b2cb30093f766221fd0d37964949ed6691800000000000000000000000000000000000000000000000029a2241af62c00008dd3cdec2cd8e6d1c9795a41d60e3d433607862ad7d67479487cc08be2a6267800000000000000000000000000000000000000000000000000000000000000e000000000000000000000000000000000000000000000000000000000000001200000000000000000000000000000000000000000000000000000000000000009777261702e6e6561720000000000000000000000000000000000000000000000000000000000000000000000000000000000000000000000000000000000004030653765333461363431386432643334316434346235333230303466643264343434663861333231633539636664383064626637316239366636633164323631"
  ],
  "receipt": {
    "receipt_type": "2",
    "post_state_or_status": "0x01",
    "cumulative_gas_used": "308208",
    "bloom": "0x00020000000020020000000000000004000000000400000000000000001000000000800000000000002200000400000000800004000040000000200000200000000020000202040000000008000000a00000000000002000000000000000010000000002020000400000000008001800000000000000000000000010000000000000002000000000000000000000002800000000000000000000000040000000020000000100000001000000000004000000000000000000010000000001000010000012004000000000000000000000820000000000000000000200000024800010400000000000000020000000000000100000000000100000000000000000",
    "logs": [
      {
        "address": "0x9f722b2cb30093f766221fd0d37964949ed66918",
        "topics": [
          "0xddf252ad1be2c89b69c2b068fc378daa952ba7f163c4a11628f55a4df523b3ef",
          "0x000000000000000000000000766f3377497c66c31a5692a435cf3e72dcc2d4fc",
          "0x00000000000000000000000066bd2fccef911a5bef987dcb4afb5e62f33ca222"
        ],
        "data": "0x00000000000000000000000000000000000000000000000029a2241af62c0000"
      },
      {
        "address": "0x9f722b2cb30093f766221fd0d37964949ed66918",
        "topics": [
          "0x8c5be1e5ebec7d5bd14f71427d1e84f3dd0314c0f7b2291e5b200ac8c7c3b925",
          "0x000000000000000000000000766f3377497c66c31a5692a435cf3e72dcc2d4fc",
          "0x00000000000000000000000066bd2fccef911a5bef987dcb4afb5e62f33ca222"
        ],
        "data": "0x00000000000000000000000000000000000000000000000041280d16136b9000"
      },
      {
        "address": "0x630105189c7114667a7179aa57f07647a5f42b7f",
        "topics": [
          "0xca1cf8cebf88499429cca8f87cbca15ab8dafd06702259a5344ddce89ef3f3a5",
          "0x00000000000000000000000000000000000000000000000000000000000000d4",
          "0x0000000000000000000000000000000000000000000000000004d50100000002"
        ],
        "data": "0x220202020202020202020202020202020202020202020202020202020202020200000000000000000000000000000000000000000000000000000000000000c000000000000000000000000000000000000000000000000000000000000001000000000000000000000000000000000000000000000000000000000000000140000000000000000000000000000000000000000000000000000000003b9aca0000000000000000000000000000000000000000000000000000000000000001800000000000000000000000000000000000000000000000000000000000000014010101010101010101010101010101010101010100000000000000000000000000000000000000000000000000000000000000000000000000000000000000140202020202020202020202020202020202020202000000000000000000000000000000000000000000000000000000000000000000000000000000000000000f70616e646172722e746573746e6574000000000000000000000000000000000000000000000000000000000000000000000000000000000000000000000001a00000000000000000000000000000000000000000000000000000000000000060000000000000000000000000000000000000000000000000000000000000016000000000000000000000000004040404040404040404040404040404040404040000000000000000000000000000000000000000000000000000000000000001000000000000000000000000000000000000000000000000000000000000002000000000000000000000000000000000000000000000000000000000000000000000000000000000000000000000000000000000000000000000000000000001000000000000000000000000000000000000000000000000000000000000008000000000000000000000000000000000000000000000000000000000000006fb0000000000000000000000000000000000000000000000000000000000000020757364632e6d61703030372e746573746e657458777261702e746573746e6574000000000000000000000000000000000000000000000000000000000000000c777261702e746573746e65740000000000000000000000000000000000000000"
      },
      {
        "address": "0x630105189c7114667a7179aa57f07647a5f42b7f",
        "topics": [
          "0xca1cf8cebf88499429cca8f87cbca15ab8dafd06702259a5344ddce89ef3f3a5",
          "0x00000000000000000000000000000000000000000000000000000000000000d4",
          "0x0000000000000000000000000000000000000000000000000004d50100000002"
        ],
        "data": "0x210101010101010101010101010101010101010101010101010101010101010100000000000000000000000000000000000000000000000000000000000000c00000000000000000000000000000000000000000000000000000000000000100000000000000000000000000000000000000000000000000000000000000014000000000000000000000000000000000000000000000000000000002540be40000000000000000000000000000000000000000000000000000000000000001800000000000000000000000000000000000000000000000000000000000000014010101010101010101010101010101010101010100000000000000000000000000000000000000000000000000000000000000000000000000000000000000140202020202020202020202020202020202020202000000000000000000000000000000000000000000000000000000000000000000000000000000000000000f70616e646172722e746573746e6574000000000000000000000000000000000000000000000000000000000000000000000000000000000000000000000001c000000000000000000000000000000000000000000000000000000000000000600000000000000000000000000000000000000000000000000000000000000180000000000000000000000000040404040404040404040404040404040404040400000000000000000000000000000000000000000000000000000000000000010000000000000000000000000000000000000000000000000000000000000020000000000000000000000000000000000000000000000000000000000000000000000000000000000000000000000000000000000000000000000000000000010000000000000000000000000000000000000000000000000000000000000080000000000000000000000000000000000000000000000000000000000000071d0000000000000000000000000000000000000000000000000000000000000027757364632e6d61703030372e746573746e657458757364742e6d61703030372e746573746e6574000000000000000000000000000000000000000000000000000000000000000000000000000000000000000000000000000000000000000013757364742e6d61703030372e746573746e657400000000000000000000000000"
      },
      {
        "address": "0x9f722b2cb30093f766221fd0d37964949ed66918",
        "topics": [
          "0x8c5be1e5ebec7d5bd14f71427d1e84f3dd0314c0f7b2291e5b200ac8c7c3b925",
          "0x00000000000000000000000066bd2fccef911a5bef987dcb4afb5e62f33ca222",
          "0x000000000000000000000000630105189c7114667a7179aa57f07647a5f42b7f"
        ],
        "data": "0x00000000000000000000000000000000000000000000000029a2241af62c0000"
      },
      {
        "address": "0x9f722b2cb30093f766221fd0d37964949ed66918",
        "topics": [
          "0xddf252ad1be2c89b69c2b068fc378daa952ba7f163c4a11628f55a4df523b3ef",
          "0x00000000000000000000000066bd2fccef911a5bef987dcb4afb5e62f33ca222",
          "0x000000000000000000000000630105189c7114667a7179aa57f07647a5f42b7f"
        ],
        "data": "0x00000000000000000000000000000000000000000000000029a2241af62c0000"
      },
      {
        "address": "0x9f722b2cb30093f766221fd0d37964949ed66918",
        "topics": [
          "0x8c5be1e5ebec7d5bd14f71427d1e84f3dd0314c0f7b2291e5b200ac8c7c3b925",
          "0x00000000000000000000000066bd2fccef911a5bef987dcb4afb5e62f33ca222",
          "0x000000000000000000000000630105189c7114667a7179aa57f07647a5f42b7f"
        ],
        "data": "0x0000000000000000000000000000000000000000000000000000000000000000"
      },
      {
        "address": "0x9f722b2cb30093f766221fd0d37964949ed66918",
        "topics": [
          "0xddf252ad1be2c89b69c2b068fc378daa952ba7f163c4a11628f55a4df523b3ef",
          "0x000000000000000000000000630105189c7114667a7179aa57f07647a5f42b7f",
          "0x000000000000000000000000fc8d54a80e0facc51d6cb8dd2df61851932f8def"
        ],
        "data": "0x000000000000000000000000000000000000000000000000011c37937e080000"
      },
      {
        "address": "0x9f722b2cb30093f766221fd0d37964949ed66918",
        "topics": [
          "0xddf252ad1be2c89b69c2b068fc378daa952ba7f163c4a11628f55a4df523b3ef",
          "0x000000000000000000000000630105189c7114667a7179aa57f07647a5f42b7f",
          "0x000000000000000000000000ce90f44c25b00c022799c96e639dfa547de4ade1"
        ],
        "data": "0x000000000000000000000000000000000000000000000000002386f26fc10000"
      },
      {
        "address": "0x630105189c7114667a7179aa57f07647a5f42b7f",
        "topics": [
          "0x70813c9dca7020458095d8251d2a1268cfadf7eb8a1fd2054c571fca46fea906",
          "0x8dd3cdec2cd8e6d1c9795a41d60e3d433607862ad7d67479487cc08be2a62678",
          "0x0000000000000000000000009f722b2cb30093f766221fd0d37964949ed66918"
        ],
        "data": "0x000000000000000000000000000000000000000000000000016345785d8a0000"
      },
      {
        "address": "0x9f722b2cb30093f766221fd0d37964949ed66918",
        "topics": [
          "0xddf252ad1be2c89b69c2b068fc378daa952ba7f163c4a11628f55a4df523b3ef",
          "0x000000000000000000000000630105189c7114667a7179aa57f07647a5f42b7f",
          "0x0000000000000000000000000000000000000000000000000000000000000000"
        ],
        "data": "0x000000000000000000000000000000000000000000000000283edea298a20000"
      },
      {
        "address": "0x630105189c7114667a7179aa57f07647a5f42b7f",
        "topics": [
          "0xca1cf8cebf88499429cca8f87cbca15ab8dafd06702259a5344ddce89ef3f3a5",
          "0x00000000000000000000000000000000000000000000000000000000000058f8",
          "0x0000000000000000000000000000000000000000000000000004d50100000001"
        ],
        "data": "0x8dd3cdec2cd8e6d1c9795a41d60e3d433607862ad7d67479487cc08be2a6267800000000000000000000000000000000000000000000000000000000000000c00000000000000000000000000000000000000000000000000000000000000120000000000000000000000000000000000000000000000000000000000000016000000000000000000000000000000000000000000000000000000000002c402000000000000000000000000000000000000000000000000000000000000001c0000000000000000000000000000000000000000000000000000000000000003c613062383639393163363231386233366331643139643461326539656230636533363036656234382e666163746f72792e6272696467652e6e656172000000000000000000000000000000000000000000000000000000000000000000000014766f3377497c66c31a5692a435cf3e72dcc2d4fc00000000000000000000000000000000000000000000000000000000000000000000000000000000000000403065376533346136343138643264333431643434623533323030346664326434343466386133323163353963666438306462663731623936663663316432363100000000000000000000000000000000000000000000000000000000000001e0000000000000000000000000000000000000000000000000000000000000006000000000000000000000000000000000000000000000000000000000000001a00000000000000000000000009f722b2cb30093f766221fd0d37964949ed66918000000000000000000000000000000000000000000000000000000000000000100000000000000000000000000000000000000000000000000000000000000200000000000000000000000000000000000000000000000000000000000000000000000000000000000000000000000000000000000012fd6efee90fec4b50880000000000000000000000000000000000000000000000000000000000000008000000000000000000000000000000000000000000000000000000000000000030000000000000000000000000000000000000000000000000000000000000046613062383639393163363231386233366331643139643461326539656230636533363036656234382e666163746f72792e6272696467652e6e65617258777261702e6e65617200000000000000000000000000000000000000000000000000000000000000000000000000000000000000000000000000000000000000000009777261702e6e6561720000000000000000000000000000000000000000000000"
      },
      {
        "address": "0x66bd2fccef911a5bef987dcb4afb5e62f33ca222",
        "topics": [
          "0x1d67746af427de24be5afc7a7aa07d13dd22ebec2b095ce58b67c8c832c9120f",
          "0x000000000000000000000000766f3377497c66c31a5692a435cf3e72dcc2d4fc",
          "0x0000000000000000000000009f722b2cb30093f766221fd0d37964949ed66918",
          "0x00000000000000000000000000000000000000000000000029a2241af62c0000"
        ],
        "data": "0x00000000000000000000000000000000000000000000000000000000000058f80000000000000000000000000000000000000000000000000004d501000000010000000000000000000000009f722b2cb30093f766221fd0d37964949ed6691800000000000000000000000000000000000000000000000029a2241af62c00008dd3cdec2cd8e6d1c9795a41d60e3d433607862ad7d67479487cc08be2a6267800000000000000000000000000000000000000000000000000000000000000e000000000000000000000000000000000000000000000000000000000000001200000000000000000000000000000000000000000000000000000000000000009777261702e6e6561720000000000000000000000000000000000000000000000000000000000000000000000000000000000000000000000000000000000004030653765333461363431386432643334316434346235333230303466643264343434663861333231633539636664383064626637316239366636633164323631"
      }
    ]
  }
}
